:20000000317B8221A280CD36F021FC8022F8803E0032F3804FCD1BEA3E0132F6803E0032EA
:20002000F4803AF6804FCD1EEA3AF4804FCD21EAED4BF880CD24EACD2AEA3AF480FE3FCA82
:2000400049803C32F480C329803AF680FEFFCA7E803C32F6803E2E4FCD09F03AFA803CFEC1
:2000600050CA6A8032FA80C31D803E0032FA803E0D4FCD09F03E0A4FCD09F0C31D80AF3288
:20008000FA803AF3803CFE04CA998032F380E521E580CD36F0E1C3148021CB80CD36F0C3BB
:2000A00033F00D0A0A466F726D6174696572652034207669727475656C6C65204469736BF3
:2000C0000D0A4469736B20310D0A000D0A466F726D6174696572756E67206265656E646589
:2000E000740D0D0A000D0A6E657874204469736B0D0A00000000000000000000E5E5E5E53C
:20010000E5E5E5E5E5E5E5E5E5E5E5E5E5E5E5E5E5E5E5E5E5E5E5E5E5E5E5E5E5E5E5E53F
:20012000E5E5E5E5E5E5E5E5E5E5E5E5E5E5E5E5E5E5E5E5E5E5E5E5E5E5E5E5E5E5E5E51F
:20014000E5E5E5E5E5E5E5E5E5E5E5E5E5E5E5E5E5E5E5E5E5E5E5E5E5E5E5E5E5E5E5E5FF
:20016000E5E5E5E5E5E5E5E5E5E5E5E5E5E5E5E5E5E5E5E5E5E5E5E5E5E5E5E50000000073
:00000001FF
